:020000040800F2
:10000000C86900209D010008411E00081D1E00084F
:100010003D1E0008BD030008852800080000000000
:10002000000000000000000000000000C5260008DD
:10003000C103000800000000451E0008C926000892
:10004000B7010008B7010008B7010008B7010008B0
:10005000B7010008B7010008B7010008B7010008A0
:10006000B7010008B7010008B7010008B701000890
:10007000B7010008B7010008B7010008B701000880
:10008000B7010008B7010008B7010008B701000870
:10009000B7010008B7010008B7010008B701000860
:1000A000B7010008B7010008B7010008B701000850
:1000B000B7010008B7010008B7010008B701000840
:1000C000B7010008B7010008B7010008B701000830
:1000D000B7010008B7010008B7010008B701000820
:1000E000B7010008B7010008B7010008B701000810
:1000F000B7010008B7010008B7010008B701000800
:10010000B7010008B7010008B7010008B7010008EF
:10011000B7010008B7010008B7010008B7010008DF
:10012000B7010008B7010008B7010008B7010008CF
:10013000B7010008B7010008B7010008B7010008BF
:10014000B7010008B7010008B7010008B7010008AF
:10015000B7010008B7010008B7010008B70100089F
:10016000B7010008B7010008B7010008B70100088F
:10017000B7010008B7010008B7010008000000003F
:10018000B7010008B7010008DFF80CD000F090F8C4
:100190000048004781530008C8690020064880478E
:1001A00006480047FEE7FEE7FEE7FEE7FEE7FEE75C
:1001B000FEE7FEE7FEE7FEE7812700088901000869
:1001C0002DE9F05F0546002092469B46884606468C
:1001D000814640241BE0284641464746224600F01F
:1001E00057F853465A46C01A914110D31146184643
:1001F000224600F03EF82D1A67EB01084F462246D2
:100200000120002100F035F817EB00094E41201EB7
:10021000A4F10104DFDC484631462A464346BDE8E6
:10022000F09FD2B201E000F8012B491EFBD27047CB
:100230000022F6E710B513460A4604461946FFF7B2
:10024000F0FF204610BD30B50B46014600202022AD
:10025000012409E021FA02F59D4205D303FA02F5D3
:10026000491B04FA02F52844151EA2F10102F1DC33
:1002700030BD202A04DB203A00FA02F1002070474A
:100280009140C2F1200320FA03F3194390407047D4
:10029000202A04DB203A21FA02F00021704721FADB
:1002A00002F3D040C2F12002914008431946704742
:1002B000064C074D06E0E06840F0010394E80700B3
:1002C00098471034AC42F6D3FFF762FF9809030851
:1002D000B809030880B540F60040C4F202000821C6
:1002E00000F084F9B0FA80F0400980BD014640F288
:1002F000FC40C2F2000000F0C9BF000080B540F22F
:10030000FC40C2F2000000F0D3FF043818BF012007
:1003100080BD000080B500F019F801281CBF012045
:1003200080BD40F2FC40C2F2000000F0D7FF002880
:1003300018BF80BD40F2FC40C2F200004FF40061E3
:1003400000F04CFE002818BF012080BD80B582B0AF
:1003500001208DF80700FFF7BDFF002804BF002033
:100360008DF807009DF8070002B080BD80B582B00F
:100370009C4613460A46014640F2FC40C2F2000089
:10038000CDF800C001F056F9002818BF012002B0D6
:1003900080BD000080B582B09C4613460A460146E7
:1003A00040F2FC40C2F20000CDF800C001F05CFA5F
:1003B000002818BF012002B080BD0000FEE7000049
:1003C00070470000EFF3108072B600BFFEE7000038
:1003D00080B540F2F043C2F200035A7A002A1CBFF3
:1003E000012080BD93F809C08646002003F80C0068
:1003F0005A7A03EB8202C2F804E05A7A1A44107265
:1004000093F809C00CF101025A720CF130020A7023
:1004100042F63A72A1F80120C87080BDB0B504461A
:1004200000F0F0F8054640F20C00C2F2000000783F
:10043000611C18BF044400BF00F0E4F8401BA04258
:10044000FAD3B0BD2DE9F04F82B000F13E4241F643
:10045000004502F1FF77C4F20205082243F6004E80
:100460004FEAB726A84208BF0722C4F2010E072EA2
:1004700038BF4FEAB7220125002600274FF00008B9
:10048000009208E008F101080437B8F1100F06F1F6
:10049000020600F0A7800C6805FA08F914EA090FB3
:1004A000F0D0D1F804B003220BF0030CACF101043E
:1004B000B240012C6FEA020A10D88268CC6802EAC6
:1004C0000A02B440224382604268CBF3001422EA5D
:1004D000090204FA08F42243426005E0BCF1030F6C
:1004E00002D14FF0030C20E0C2688C6802EA0A02D5
:1004F000B4402243BCF1020FC26016D16FF0030278
:1005000002EA58020244D2F820C007F01C050F236B
:100510000C69AB402CEA030304FA05F52B43136284
:10052000D1F804B001250BF0030C02680CFA06F3B5
:1005300002EA0A021A431BF4403F0260A2D00022E2
:1005400043F644030192C4F202031A684FF6084CC2
:1005500042F480421A601A68CFF6FF7C02F48042AF
:100560000192019A28F00302724452F80C3007F00D
:100570000C050F24AC40A343009C04FA05F52B4363
:1005800042F80C30DEF808204B6842EA090543F6D1
:100590000C4CDC0258BF22EA0905CEF80850C4F220
:1005A000010CDCF800209C0242EA090558BF22EA4F
:1005B0000905CCF80050DEF804209C0342EA090546
:1005C00058BF22EA0905CEF80450DEF80020DB030C
:1005D00042EA090558BF22EA0905CEF80050012574
:1005E00050E700BF02B0BDE8F08F0000006908408E
:1005F00018BF012070470000002A08BF090481616C
:100600007047000040F2C450C2F20000006870471A
:1006100040F20C0040F2C451C2F20000C2F20001EC
:1006200000780A68104408607047000080B543F6FF
:100630000040C4F20200016841F4007101600168E9
:1006400041F480610160016841F480710160032020
:1006500000F074F80F2000F005F800F027F80020F3
:1006600080BD000070B540F20C06C2F2000640F2F8
:1006700018013278C2F200014FF47A730968B3FBB3
:10068000F2F20446B1FBF2F1084601F007FA0F2C32
:100690004FF0010508D838B94FF0FF30214600224D
:1006A000002500F01FF87460284670BD82B000205D
:1006B00043F640010190C4F202014A6842F48042CC
:1006C0004A604A6802F480420192019A00900868E8
:1006D00040F080500860086800F08050009000985A
:1006E00002B0704710B54EF60C5CCEF2000CDCF890
:1006F0000030C3F3022E8EF00704042C28BF04241C
:10070000BEF103034FF0FF3E0EFA04F438BF00239E
:10071000A14399400EFA03F39A43114300F00F02EC
:1007200000F160430901043A03F564436244002880
:1007300048BF02F10C03197010BD00004EF60C51B9
:10074000CEF200010A684FF6FF031A4060F30A2256
:1007500042F0806040F0FD7008607047F0B581B0F5
:100760000446006810F0050F2DD06827C4F2472713
:1007700043F670060020C4F202063860FFF742FF1D
:10078000054600BF56F8700C000105D5FFF73AFF8B
:10079000401B0228F6D93FE0D4E90110000740EAE7
:1007A0008110706101203860FFF72CFF054600BF03
:1007B00056F8700C000105D4FFF724FF401B0228F7
:1007C000F6D929E0206880074FF0000058D543F69D
:1007D0007006C4F20206009056F8300C47F200078B
:1007E00040F0805046F8300C56F8300CC4F2000748
:1007F00000F0805000900098386840F480703860B5
:10080000FFF700FF054600BF3868C00508D4FFF7B2
:10081000F9FE401B0228F7D9032001B0F0BD00BF4C
:10082000306810F4407013D0E16801F440718842E0
:100830000ED0306840F64061C4F24721012220F416
:1008400040700A6000220A6030603068C00719D129
:10085000E06856F8681C4FF6FF4300F4407221F43C
:10086000F811C0F6FF730340B2F5407F08BF19438B
:1008700046F8681C31686FF31F3008433060002071
:1008800001B0F0BDFFF7BEFE054641F2883700BF5C
:1008900030688007DCD4FFF7B5FE401BB8424FF04C
:1008A0000300F5D9ECE700002DE9F041002800F045
:1008B0008B8043F60808C4F202080446D8F8F8030F
:1008C0000D4600F00700884207D288F8F853D8F8A0
:1008D000F80300F00700A84276D12068810717D5F9
:1008E000410705D5D8F8001041F4E051C8F80010D0
:1008F000010705D5D8F8001041F46041C8F8001090
:10090000D8F80010A26821F0F0011143C8F80010D7
:10091000C0073FD1D8F8F80300F00700A84207D974
:1009200088F8F853D8F8F80300F00700A8424BD134
:100930002068410707D5D8F80010E26821F4E0519B
:100940001143C8F80010000708D5D8F80000216945
:1009500020F4604040EAC100C8F8000000F07CF8D4
:10096000D8F8001045F61452C1F30311C0F6000286
:10097000515C40F2180220FA01F140F21000C2F27C
:1009800000000068C2F200021160FFF76BFE002059
:10099000BDE8F0816068811E022907D258F8081C62
:1009A00089015CBF0120BDE8F08111E0012807D179
:1009B00058F8081C89035CBF0120BDE8F08107E0FE
:1009C00058F8081C890703D40120BDE8F08100BF56
:1009D000D8F8001021F003010843C8F80000FFF721
:1009E00011FE064641F28837D8F80000616800F031
:1009F0000C00B0EB810F8DD0FFF704FE801BB842D6
:100A0000F2D90320BDE8F08140F2180043F6080156
:100A1000C2F20000C4F202010068096845F62452DF
:100A2000C1F38221C0F60002515CC840704700004B
:100A300040F2180043F60801C2F20000C4F20201BD
:100A40000068096845F62452C1F34231C0F600023D
:100A5000515CC8407047000010B543F60404C4F26E
:100A60000204606800F00C0142F200400829C0F264
:100A7000F40007D0042918BF10BD41F20020C0F2D5
:100A80007A0010BD216801F03F0221682368490205
:100A9000C3F3881106D4A1FB00010023FFF790FBEC
:100AA00007E000BF41F20020C0F27A004843B0FBEB
:100AB000F2F021680222C1F3014102EB4101B0FBD7
:100AC000F1F010BD2DE9F04182B0002868D0044655
:100AD000007843F60006C007C4F202060BD0B068E7
:100AE00000F00C00042840F09F803068800302D59D
:100AF0006068002854D0207880071AD5B06810F0BC
:100B00000C0F09D0B06800F00C00082840F0A68057
:100B10007068400200F1A2803068800702D5E0686A
:100B200001283DD13068216920F0F80040EAC10079
:100B300030602078000737D4207840074CD4A5696E
:100B400055B3B06800F00C00082840F0BB80012DC0
:100B500026D07068E16900F480028A4220D1216ABF
:100B600000F03F028A421BD147F6C071626A014021
:100B7000B1EB821F14D1A16A4FF6FF73C9039943E9
:100B800000F44032A1F580318A4209D1E16A00F0D7
:100B90007060B0EB016F03D1002002B0BDE8F081BE
:100BA000012002B0BDE8F0816069002840F2000039
:100BB000C4F2472076D00121C0F8801EFFF722FD45
:100BC000054600BF706F8007B6D4FFF71BFD401BC2
:100BD0000228F7D9DDE000BF306C10F080580AD150
:100BE00000200190306C40F080503064306C00F098
:100BF00080500190019847F20007C4F2000738685E
:100C0000C00541D4386840F480703860FFF7FAFCC2
:100C1000054600BF3868C00536D4FFF7F3FC401B1B
:100C20000228F7D9B5E000BFB06800F00C00082832
:100C300003D1706840023FF558AF6068B0F5803F5F
:100C400007D0B0F5A02F40F08D80306840F48020B0
:100C50003060306840F4803030608DE0E06800281B
:100C600052D00020C4F2472001210160FFF7CAFCE6
:100C7000054600BF306880073FF554AFFFF7C2FC60
:100C8000401B0228F6D984E0A068012805D0052879
:100C90004ED1306F40F004003067306F40F00100FB
:100CA00030674FE00021C0F8801EFFF7ABFC05461F
:100CB000706F80077FF540AFFFF7A4FC401B022850
:100CC000F6D966E00027C4F2472700203866FFF710
:100CD00099FC022D05460BD1306880015ED5FFF7E7
:100CE00091FC401B02284FF00300F5D955E700BFE7
:100CF000306880017FF550AFFFF784FC401B02286D
:100D00004FF00300F4D948E70020C4F24720002147
:100D10000160FFF777FC0546306880077FF509AF73
:100D2000FFF770FC401B02284FF00300F4D934E7B2
:100D3000316F002821F001013167316F21F004018A
:100D400031674DD0FFF75EFC054641F2883700BFA2
:100D5000306F800756D4FFF755FC401BB842F7D9D7
:100D600017E000BF3168002821F48031316031681C
:100D700021F4802131604FD0FFF744FC054600BFCD
:100D8000306880033FF5B7AEFFF73CFC401B64289A
:100D9000F6D9032002B0BDE8F08100BF04F11C05C4
:100DA0002FCD084340EA8210D9034FF6FF729143DA
:100DB000A1F5803140EA0560084370600120386683
:100DC000FFF720FC044600BF306880013FF5E4AE29
:100DD000FFF718FC001B02284FF00300F4D9DCE6F3
:100DE000FFF710FC054641F2883700BF306F8007DF
:100DF00008D5FFF707FC401BB8424FF00300F5D9B8
:100E0000CBE600BFB8F1000F7FF499AE306C20F054
:100E10008050306493E600BFFFF7F4FB054600BF47
:100E2000306880037FF567AEFFF7ECFB401B64285A
:100E30004FF00300F4D9B0E610B50068836A4B6048
:100E400003696FF3DF338B600068C0F30543C0F3C1
:100E5000062E00F07F0CC0F380540B7081F801E087
:100E600081F802C0CC700AB1002010BD020C1B0931
:100E700043EA830302F00F0202EB4302040A0A7002
:100E80004FEA1E1202EB820204F00F0303EB420250
:100E90004A704FEA1C1202EB820200F00F0000EBD6
:100EA00042008870002010BD002804BF0120704758
:100EB000B0B50446407F20B900202077204600F0DE
:100EC0006BF8022060772168CA204862532048628C
:100ED000C868400614D4C86840F08000C860FFF7B6
:100EE00091FB2168CA6852060AD40546FFF78AFBBF
:100EF000401BB0F57A7F47D82168C8684006F5D511
:100F000088684FF6BF72CFF68F7210408860D4E9C0
:100F1000010CD4E90335626928438D6810432843E6
:100F200088600B61086940EA0C400861C86820F0DD
:100F30008000C8608868800618D4C86820F0A000C7
:100F4000C860FFF75FFB05462168C86880060DD4BE
:100F5000FFF758FB401BB0F57A7FF5D90420607786
:100F600021680120FF224A62B0BD00BF086C20F456
:100F700080200864A0690A6C10430864012060772F
:100F80000020FF224A62B0BD042060772168C86853
:100F90000120FF224A62B0BD80B584B0006842F6ED
:100FA0000002C4F20002002190420291019101D09E
:100FB00004B080BD022000904FF48070039068461A
:100FC000FFF7CCFB002818BFFFF7FCF940F63C60A8
:100FD000C4F247200121016004B080BD2DE9F04139
:100FE00086B00446032084F83400606C88460328E9
:100FF00022D14FF08050A16B40F2FF560843A0630E
:10100000A06BC0F2400600283ED020680125866310
:1010100084F834504FF4007100F0ACFF28B121681F
:1010200001258E63A16B0843A0630121284684F843
:10103000341006B0BDE8F081B8F1000F36D0B8F535
:10104000805FD6D0B8F5006F46D1002120680591A9
:101050000491002100F010FF800141D404A9204632
:1010600001F040FA0028C6D19DF81600400730D59F
:10107000216D2068090400F029FF0028BBD12068F9
:10108000022100F083FFB6E794E80F00D4E905578A
:10109000CDE90085029700F0F3FE206800254FF4AB
:1010A000007100F067FF0028B9D1BEE70021206879
:1010B00005910491002100F0DFFE800110D404A905
:1010C000204601F00FFA002895D19DF81600C007C0
:1010D0000AD14FF080608EE74FF000608BE700BFD1
:1010E0004FF4006087E700BF216D2068090400F01D
:1010F000EDFE00287FF47FAF2068002100F046FF5E
:1011000079E7000080B5D0E9193ED0F844C09A0FC5
:101110000A70C3F383624A70C3F301628A701A0CC7
:10112000CA701A0A0A714FEA1E524B71CA80CEF376
:1011300003420A72CEF3C0324A72CEF380328A7210
:10114000CEF34032CA72CEF300320A730022BCF1F1
:10115000010F4A7336D0BCF1000F40F0878040F693
:10116000FC72C36E02EA8E0242EA93720A61C26E98
:10117000C2F3C2630B75C2F302634B75C2F34253F1
:101180008B75C2F38243CB75C2F3C2330B76D1F8B1
:1011900010C00B7E0CF1010C03F0070302330CFAB4
:1011A00003FCC0F854C00B7A03F00F0E012303FABE
:1011B0000EF383655B0A03FB0CF3C3654FF4007306
:1011C00012E000BFB0F86E200EF03F0342EA034287
:1011D0000A610A694FF4806303EB82224FF40073C3
:1011E000C0E91523C265C26E0366C2F380334B7635
:1011F000C2F3C61302F07F028B76CA76006FC20F6D
:101200000A77C0F341724A77C0F382628A77C0F3EB
:101210008352CA77C0F3405281F820200022C0F3E5
:10122000004381F8212081F82230C0F3C03381F8D7
:101230002330C0F3803381F82430C0F3403381F889
:101240002530C0F3003381F82630C0F3812381F8C4
:101250002730C0F30123C0B2400881F8283081F85C
:101260002900012081F82A00104680BD016840F263
:10127000FF52C0F240028A63816B012241F080512B
:10128000816380F83420104680BD000080B500F1F5
:10129000440E9EE80C5081E80C10426DC1E903E257
:1012A000D0E91623C1E90523026E0020CA6180BD82
:1012B00010B5016D04460068090400F0C5FF28B1AF
:1012C000A16B0843A063002010BD00BF206800216F
:1012D00000F0D2FDC0F3432010BD000010B5D8B11E
:1012E000044690F8340020B900202077204600F012
:1012F00023F9032084F83400204600F00FF800287A
:101300004FF0010018BF10BD0021A163216384F8D4
:101310003400002010BD00BF012010BDF0B58FB01B
:101320000446006876210026029100210022002355
:101330000096019600F0A4FD4FF0010510B128467B
:101340000FB0F0BD48F2A007C4F225273E60206828
:1013500000F0ACFD02203D60FFF760F804962068C5
:1013600000F020FE40B1012584F83450A16B084301
:10137000A06328460FB0F0BD206800F043FE58B1CE
:1013800020680021A16400F00DFE0028EBD1A06CC4
:10139000012803D00AE000BF0120A06420680021DA
:1013A00000F094FD10B14FF08050DCE704984FF648
:1013B000FE76B0421ED80025CCF210152068002120
:1013C00000F084FD0028CED12068294600F08AFD77
:1013D0000028E8D12068002100F04EFD0499013179
:1013E00004910499B14202D8B0F1FF3FE6DCC0F3AA
:1013F000807000E0002004994FF6FF72914203D301
:101400004FF08070AFE700BF606420680125ADF841
:101410000E5000F02DFD88B1606C032812D12068B9
:10142000042100F029FD000DE06404A92046FFF727
:1014300069FE002854D04FF0805095E74FF080604F
:1014400092E700BF206800F055FE00287FF48CAFC3
:101450002068002100F010FD216860670846042123
:1014600000F00AFD2168A0670846082100F004FD8D
:101470002168E06708460C2100F0FEFC616CC4F8AE
:1014800080000329CBD020680DF10E0100F0E8FEAA
:1014900000287FF469AF606C0328C0D0BDF80E103F
:1014A00020682165090400F073FE00287FF45CAF1A
:1014B0002068002100F0E0FC2168606608460421F5
:1014C00000F0DAFC2168A0660846082100F0D4FC90
:1014D0002168E06608460C2100F0CEFC20679EE7FC
:1014E000216D20680A04002300F0F8FD00287FF435
:1014F0003BAF94E88F00D4E90565CDE9007602950D
:1015000000F0BEFC20684FF4007100F033FD78B1AC
:10151000216840F2FF52C0F240028A63A16B0125AC
:101520000843A06384F8345028460FB0F0BD00BFD4
:10153000002528460FB0F0BD2DE9F04786B040F2F7
:101540000044C4F202040068A4F55841884203D064
:1015500006B0BDE8F08700BF4FF0000943F6300049
:10156000CDF80490C4F20200416901AD41F400617C
:10157000416141694FF0020801F400610191019954
:10158000CDF8049001684FF0010A41F002010160BA
:101590000168032701F0020101910199CDF804903F
:1015A00001680C2641F004010160016801F00401AA
:1015B00001910199CDF80490016841F008010160A2
:1015C0000068294600F00800019001984FF4F85097
:1015D000019004F58060CDF80880CDF80CA0049748
:1015E0000596FEF72FFF042001A9CDE9047604F546
:1015F000006681E8010530462946FEF723FF0820F2
:10160000CDE90109304629460497FEF71BFF4FF448
:101610008040CDE90108204629460497FEF712FFD5
:1016200020464FF480410022FEF7E6FF06B0BDE8F9
:10163000F08700002DE9F04786B01F4616460D469C
:101640000446FEF7DFFF9DB1804694F83400012880
:1016500016D10021A163E06DBA19824218D9A06B9E
:1016600040F00070A063012006B0BDE8F08700BF25
:10167000A06B40F00060A063012006B0BDE8F087D9
:10168000A06B40F00050A063012006B0BDE8F087D9
:10169000032084F83400626C2068012A4FF0FF3286
:1016A000C16218BF760200927A024FF002090192DD
:1016B0009022CDE903914FF0010A69460292CDF8DC
:1016C00014A000F0C1FB022F18D3C4F8309020689A
:1016D000314600F0EBFCC8B1216840F2FF52C0F285
:1016E00040028A63A16B0843A0630120002184F8B3
:1016F0003400216306B0BDE8F08700BFC4F830A015
:101700002068314600F0DEFC0028E5D1DDF8389095
:10171000019E40F22A3A05E0FEF774FFA0EB0800B4
:10172000484541D22068426B416B12EA0A0F25D12D
:101730000904F1D5002EEFD000F0BEFB2860206830
:1017400000F0BAFB6860206800F0B6FBA860206873
:1017500000F0B2FBE860206800F0AEFB2861206872
:1017600000F0AAFB6861206800F0A6FBA861206871
:1017700000F0A2FBE8612035203ECDE7022F27D301
:1017800011F4807124D0616C032921D000F0CEFDCA
:1017900001462068E1B140F2FF52C0F2400282638C
:1017A000A06B0843A0E700BF206840F2FF51C0F2E1
:1017B00040018163A06B40F00040A063012084F8E9
:1017C000340000202063032006B0BDE8F08700BF8E
:1017D000416B090720D4416B890727D4416B8906E7
:1017E0002ED42068416B890234D59EB300F064FB8F
:1017F00045F8040B043EFEF705FFA0EB0800484542
:10180000EFD3206840F2FF51C0F240018163A06B2A
:1018100040F0004068E700BF40F2FF51C0F24001D5
:101820008163A06B40F008005EE700BF40F2FF510B
:10183000C0F240018163A06B40F0020054E700BF9A
:1018400040F2FF51C0F240018163A06B40F02000E4
:101850004AE700BF40F23A518163012084F8340026
:10186000002006B0BDE8F0872DE9F04F87B098461C
:1018700015460E460446FEF7C5FE9EB1824694F814
:101880003400012816D10021A163E06D08EB0502A8
:10189000824217D9A06B40F00070A063012007B00E
:1018A000BDE8F08FA06B40F00060A063012007B09E
:1018B000BDE8F08FA06B40F00050A063012007B09E
:1018C000BDE8F08F032084F83400626C2068012AA0
:1018D0004FF0FF32C16218BF6D0201924FEA4822F9
:1018E00002929022CDE9032105910121069101A9DF
:1018F00000F0AAFAB8F1020F18D320202063206864
:10190000294600F023FDC8B1216840F2FF52C0F221
:1019100040028A63A16B0843A0630120002184F880
:101920003400216307B0BDE8F08F00BF10202063B2
:101930002068294600F016FD0028E5D1DDF840902A
:10194000029F40F21A3B6D4606E000BFFEF75AFECA
:10195000A0EB0A0048455DD22068426B416B12EA59
:101960000B0F41D14904F1D5002FEFD03178009110
:10197000727841EA02210091B27841EA0241009175
:10198000F27841EA02610091294600F099FA716803
:1019900020680091294600F093FAB1682068009110
:1019A000294600F08DFAF16820680091294600F080
:1019B00087FA316920680091294600F081FA71693F
:1019C00020680091294600F07BFAB16920680091F7
:1019D000294600F075FAF069294600902068203603
:1019E00000F06EFA203FB1E7B8F1020F24D311F4F2
:1019F000807121D0616C03291ED000F097FC014654
:101A00002068C9B140F2FF52C0F240028263A06B6D
:101A1000084381E7206840F2FF51C0F24001816332
:101A2000A06BA063012084F8340000202063032011
:101A300007B0BDE8F08F00BF416B090710D4416BC0
:101A4000890717D4416BC9061ED440F23A5181630D
:101A5000012084F83400002007B0BDE8F08F00BFFB
:101A600040F2FF51C0F240018163A06B40F00800DA
:101A700052E700BF40F2FF51C0F240018163A06B0A
:101A800040F0020048E700BF40F2FF51C0F24001C1
:101A90008163A06B40F010003EE70000411E002073
:101AA000B0EB116F1CBF012070474EF21002CEF256
:101AB000000251604EF62351CEF20001F0230B706C
:101AC0000721906011607047002804BF0120704713
:101AD00010B5044690F83D0028B9002084F83C0079
:101AE000204600F021F8242084F83D002068C168D9
:101AF00021F40051C160204600F04CFE20680169CD
:101B000021F490410161416921F02A014161C168DC
:101B100041F40051C16000202021206484F83D1070
:101B200084F83E1010BD000080B586B0016841F217
:101B30000040C4F20100814202D006B080BD00BF67
:101B4000002143F630020191C4F20202536900F50C
:101B5000744043F020035361536903F02003019361
:101B6000019B0191136843F004031360126802F0B3
:101B700004020192019AC02201920222CDE90221BF
:101B8000032104910821059101A9FEF75BFC06B031
:101B900080BD00002DE9F04381B0044690F83D007F
:101BA00020280DD10F4600294FF0010000F0DD8004
:101BB0001646002A00F0D98094F83C00012803D191
:101BC000022001B0BDE8F083012084F83C00002031
:101BD000206421201D4684F83D00FEF713FDA684F5
:101BE000E684A1680646B1F5805F03D1206900282C
:101BF00000F01081B8460027002084F83C00E18CFA
:101C00002068002900F0908005F101090DE000BF77
:101C1000B8F1000F28D018F8011B4160E18C0139A0
:101C2000E184E18C002900F07F8001680906EFD48F
:101C3000B9F1000F0AD0FDB1FEF7E4FC801BA84209
:101C40001AD8206801680906F6D5E1E70168090697
:101C5000DED4016809065CBF01685FEA0161D7D480
:101C600001680906F2D5D3E737F8021B4FF00008E8
:101C70006FF35F21D1E700BF206850E8030F2168B0
:101C800020F4D07041E80302BAB3206850E8030F93
:101C9000216820F4D07041E8030272B3206850E854
:101CA000030F216820F4D07041E803022AB32068B2
:101CB00050E8030F216820F4D07041E80302002AA5
:101CC000DAD11AE0206850E8050F216820F0010001
:101CD00041E80502DAB1206850E8050F216820F0DC
:101CE000010041E8050292B1206850E8050F216823
:101CF00020F0010041E805024AB1206850E8050FD4
:101D0000216820F0010041E80502002ADAD12020F4
:101D100084F83D0084F83E00002084F83C00032055
:101D200001B0BDE8F08300BF0168490619D4FDB1D8
:101D3000691C0DD10168490613D4016849065CBFCE
:101D400001685FEA41610CD401684906F2D508E0F8
:101D5000FEF758FC801BA8420AD82068006840069D
:101D6000F6D5202084F83D00002001B0BDE8F083C6
:101D7000206850E8030F216820F4D07041E8030286
:101D8000E2B3206850E8030F216820F4D07041E8E6
:101D900003029AB3206850E8030F216820F4D07042
:101DA00041E8030252B3206850E8030F216820F491
:101DB000D07041E80302002ADAD11FE0206850E821
:101DC000050F216820F0010041E80502002A9ED09D
:101DD000206850E8050F216820F0010041E8050265
:101DE000002A3FF494AF206850E8050F216820F0E6
:101DF000010041E80502002A3FF489AF206850E85D
:101E0000050F216820F0010041E80502002AD5D124
:101E10007DE700BF4FF00008EEE60000FEE700009F
:101E200010B540F25C04C2F2000445F62C50611C6F
:101E3000C0F60000FEF7CCFA207010BDFEE70000EF
:101E4000FEE700007047000080B5024691E80950A7
:101E50005062936208694EEA0C0318434969D36AD9
:101E6000084323F0F70101430020D16280BD000048
:101E7000006800F0030070470844406970470000A4
:101E800010B58446DDE90240114319432143DDF8D2
:101E900010E00843DCF8041047F6FF6240EA0E0049
:101EA000914301430020CCF8041010BD01460322E9
:101EB00000200A6070470000D0F8800070470000E2
:101EC000096802460020C2F8801070478160C3682C
:101ED00040F2774161F30B03372141F28832C3604E
:101EE00000F04CBA41F0004141F480118160C168BA
:101EF00040F2694262F30B01C16040F21801C2F284
:101F00000001096844F6D352C1F26202A1FB021239
:101F1000510A41F2883251436FF00302514000BF31
:101F2000043104BF4FF000407047426B12F0450F80
:101F300002D012F4006214D0426B12F0450F02D0AE
:101F400012F400620DD0426B12F0450F02D012F471
:101F5000006206D0426B12F0450FE1D012F400622D
:101F6000DED1416B042211F0040108BFC522826357
:101F7000084670478160C3684FF48A6161F30B03C0
:101F8000102141F28832C36000F0F8B98160C36863
:101F900040F2464161F30B03062141F28832C360EF
:101FA00000F0ECB900218160C1684FF4806262F3F7
:101FB0000B01C16040F21801C2F20001096844F649
:101FC000D352C1F26202A1FB0212510A41F28832DD
:101FD00051436FF003025140043104BF4FF0004001
:101FE0007047426B120609D4426B12065CBF426B0B
:101FF0005FEA026202D4426B1206EDD5C52181630D
:10200000002070474FF4D5718160C1684FF4896238
:1020100062F30B01C16040F21801C2F200010968CD
:1020200044F6D352C1F26202A1FB0212510A41F2FC
:10203000883251436FF00302514000BF043104BFA6
:102040004FF000407047426B12F0450F02D012F47F
:10205000006214D0426B12F0450F02D012F40062FD
:102060000DD0426B12F0450F02D012F4006206D080
:10207000426B12F0450FE1D012F40062DED1416BE9
:10208000490709D4416BC9070AD1416B49064FF092
:10209000000108D5402205E00422042102E000BF2F
:1020A0000122012182630846704700008160C368F5
:1020B00040F2524161F30B03122141F28832C360B6
:1020C00000F05CB98160C36840F2514161F30B03D9
:1020D000112141F28832C36000F050B98260C368B8
:1020E00040F2474161F30B03072141F28832C3609C
:1020F00000F044B900218160C16840F2C24262F33D
:102100000B01C16040F21801C2F20001096844F6F7
:10211000D352C1F26202A1FB0212510A41F288328B
:1021200051436FF003025140043104BF4FF00040AF
:102130007047426B12F0450F02D012F4006214D0C7
:10214000426B12F0450F02D012F400620DD0426BC8
:1021500012F0450F02D012F4006206D0426B12F06A
:10216000450FE1D012F40062DED1416B490707D47C
:10217000416BC90708D1C52181630020704700BFAA
:102180000421816308467047012181630846704736
:102190008160C16840F2C94262F30B01C16040F244
:1021A0001801C2F20001096844F6D352C1F262027A
:1021B000A1FB0212510A41F2883251436FF003022F
:1021C000514000BF043104BF4FF000407047426BE4
:1021D00012F0450F02D012F4006214D0426B12F0DC
:1021E000450F02D012F400620DD0426B12F0450F81
:1021F00002D012F4006206D0426B12F0450FE1D01B
:1022000012F40062DED1416B490707D4416BC90764
:1022100008D1C52181630020704700BF042181637C
:10222000084670470121816308467047002181609C
:10223000C36840F2734161F30B03332141F28832EA
:10224000C36000F09BB800008160C36840F24D415C
:1022500061F30B030D2141F28832C36000F08EB8A8
:1022600000228260C26840F2434363F30B02C26003
:1022700040F21802C2F20002126844F6D353C1F2CF
:102280006203A2FB03235A0A41F288335A436FF0D8
:1022900003035A40043204BF4FF000407047436BC1
:1022A00013F0450F02D013F4006314D0436B13F006
:1022B000450F02D013F400630DD0436B13F0450FAC
:1022C00002D013F4006306D0436B13F0450FE1D046
:1022D00013F40063DED1426B52071BD4426BD2076A
:1022E0001CD10269D2B2032A1CBF01207047C5224B
:1022F0008263406910F4604F14D0410444BF4FF42E
:102300000050704700044FF4805158BF4FF48031A3
:1023100008467047042181630846704701218163A4
:1023200008467047000C088000207047002181603B
:10233000C36840F24C414EF2001261F30B03C0F24D
:10234000F5520C21C36000F019B800008160C36829
:1023500040F2594161F30B03192141F28832C36005
:1023600000F00CB88160C3684FF48B6161F30B031C
:10237000182141F28832C360AFF3008040F21803A5
:10238000C2F20003D3F800C044F6D353C1F2620393
:10239000ACFB033C03464FEA5C205043002800F0AE
:1023A0009D805A6B12F0450F02D012F400621DD0CE
:1023B000012800F093805A6B12F0450F02D012F4FE
:1023C000006213D0022800F089805A6B12F0450F8A
:1023D00002D012F4006209D00438421C7ED05A6B3D
:1023E00012F0450FDAD012F40062D7D1586B4007D3
:1023F00042BF042098637047586BC0071EBF01207E
:1024000098637047C52098631869C0B288421CBFA2
:102410000120704758694EF20801CFF6FF5108427B
:1024200004BF00207047002844BF4FF00070704781
:10243000410044BF40207047810044BF8020704766
:10244000C10044BF4FF480707047010144BF4FF496
:1024500000707047410144BF4FF480607047C10174
:1024600044BF4FF400607047010244BF4FF48050F6
:102470007047410244BF4FF400507047810244BF8F
:102480004FF480407047C10244BF4FF40040704792
:10249000410344BF4FF400307047810344BF4FF401
:1024A00080207047C10344BF4FF4002070470104EF
:1024B00044BF4FF480107047410444BF4FF40010F4
:1024C0007047810444BF4FF48000704700074FF409
:1024D000000058BF4FF48030704700BF4FF00040FD
:1024E000704700002DE9F04188B00C460546FEF724
:1024F00089F8064600212868019100910821FFF71C
:1025000039FD18B108B0BDE8F08100BF296D286819
:102510000904FFF7DBFC0028F4D14FF0FF300290F4
:10252000082003903020049002200590002006909F
:1025300001212868079102A9FFF786FC2868FFF7A8
:1025400075FE0028DED10027E8460CE00846FFF7BC
:10255000B3FC48F827000137FEF754F8801B013020
:102560004FF00040CED02968486B10F02A0F05D1FB
:10257000486B8002EAD4486B8004EDD4486B0007B6
:1025800012D4486B800711D4486B800610D440F2F7
:102590003A508863DDE9001000BA09BAC4E90001C5
:1025A000002008B0BDE8F081082002E0022000E031
:1025B0002020886308B0BDE8F0810000B0B540F28B
:1025C0001404C2F2000401252570FDF7A3FE08B132
:1025D0002078B0BD2570FDF791FE18B120782070ED
:1025E0002078B0BD207800F0FE00207020782070A8
:1025F0002078B0BD10B588B040F21400C2F20000DF
:102600000078C0070ED1032910D814460020DFE857
:1026100001F00E03111900BF6846FDF767FE06982A
:1026200015E000BF032008B010BD00BF042008B0B3
:1026300010BD00BF6846FDF759FE079820800020B6
:1026400008B010BD6846FDF751FE0798400A2060AB
:10265000002008B010BD000080B5084611461A469B
:102660004FF0FF33FDF782FE00281CBF012080BD24
:10267000FDF744FE0028FBD1002080BD10B540F2DC
:102680001404C2F2000401202070FDF737FE08B1E7
:10269000207810BD207800F0FE002070207810BD5A
:1026A00080B5084611461A464FF0FF33FDF772FE1B
:1026B00000281CBF012080BDFDF720FE0028FBD1B3
:1026C000002080BD70470000FDF7A2BFB0B592B0FA
:1026D000002443F640000B94CDE909440594CDE96C
:1026E0000344CDE901440094C4F2020001680225CC
:1026F00041F080510160006800F080500090009827
:1027000047F200000094C4F20000016841F48041E7
:102710000160006800F48040009000980520069059
:102720004FF480300790012008904FF480000D9006
:1027300004200E90A820CDE90F050720119006A8CF
:102740000C95FEF7BFF928B1EFF3108072B600BF09
:10275000FEE700BF0F20CDE901054FF4A050049023
:102760004FF48050059001A805210394FEF79CF8D2
:1027700020B1EFF3108072B6FEE700BF12B0B0BD1B
:102780004EF68850CEF20000016841F470010160FD
:102790007047000010B504460068D4E902C22369FE
:1027A000016921F4405111430161626943EA0C015E
:1027B000E3691143C268194349F20C639A43114318
:1027C000C1604169A26921F4407141F200431143A3
:1027D00040F48062C4F201039A42416102D1FEF7E3
:1027E00027F901E0FEF710F9E16963681922B1F5F4
:1027F000004FA0FB020123D15A00DB0FFDF7E0FCE4
:1028000048F21F51C5F2EB11A0FB01235A094FF604
:102810009C73C0F6FF7303F1805302FB0300322365
:1028200003EBC000A0FB01014FF4F87000EA1110A7
:1028300000EB0210C1F3421108442168886010BD0A
:102840009A009B0FFDF7BCFC48F21F51C5F2EB113B
:10285000A0FB01235A094FF69C73C0F6FF7302FBDD
:102860000300322303EB0010A0FB0101F02000EA7B
:10287000511000EB0210C1F3431108442168886035
:1028800010BD0000FEE700002DE9F04F81B0D0F848
:1028900000808946074639B14046494602F006FDA8
:1028A00002280FD201244FE0D8F810A0BAF1000F8F
:1028B00003D0D8F8180082450CD308F1180B4FF05C
:1028C000010A0CE00446013022D0D8F81800CA46AC
:1028D000844239D3BAF1020F08F1180B1ED20AF163
:1028E00001050026DBF80000A91981420AD23868E8
:1028F00002F0DCFC0446013026D04CB3012C23D07E
:102900000136EFD30024204601B0BDE8F08F00BFB0
:102910004FF0FF34204601B0BDE8F08F564600BFAF
:10292000DBF8000001368642386828BF02263146AF
:1029300002F0BCFC0446013006D06CB1012C03D07F
:1029400056454FF00004EBD1204601B0BDE8F08FB2
:102950000AEB0600441C00E03446404621464FF096
:10296000FF3202F0EFFEB9F1000F05D020B940466A
:102970004946224602F0E6FE40B10124012808BF84
:102980004FF0FF34204601B0BDE8F08FD8E90501D3
:10299000C8F81040023988429CBF0138C8F81400BA
:1029A00098F8040040F0010088F80400204601B0C7
:1029B000BDE8F08F2DE9F04F83B08168D0F800A01A
:1029C000044600206061B9B1BAF80A00E0B3DAF851
:1029D000180000268A1E0238824249D2BAF80A003C
:1029E000DAF82C3002FB0030A161E061C0B90220AE
:1029F00003B0BDE8F08F00BF9AF80000032803D3AE
:102A0000DAF828100029DFD1BAF808000028EED043
:102A1000DAF82800002600210028A161E061E6D054
:102A200000EB56216FF35F260AEB06003430C4E951
:102A300007104FF0FF385046C4F8308002F042FED5
:102A4000F0B103B0BDE8F08F45020026206802F027
:102A50002DFC0146013000F0DF820229C7D3DAF8ED
:102A600018008142C3D2761BAE42EFD2B2E700BF5C
:102A70000020C4E90610022003B0BDE8F08F00BFBB
:102A8000FF204FF0FF0B02900FE000BF3089B0EB4A
:102A9000571F40F2C58200BF701934302062504683
:102AA000676102F00FFE0028CBD1D4F8209099F88E
:102AB0000000002800F0B68299F80B20E52802F00B
:102AC0003F01A17103D0120742D50F2940D0C4F8AD
:102AD00030804FF0FF0BE16904200029B1D062691A
:102AE00002F120074FF6FF72C0F21F029742A8D8EA
:102AF0003D4626686FF35F25002DCDD1A2690131D7
:102B0000002AE161C2D070894FF6FF73C0F21F0343
:102B1000184400F5C00010EA572FBDD130461146C9
:102B200002F0C4FB0228FFF462AF411C00F0748283
:102B3000B169884280F07482821E02398A42A061A3
:102B400080F0BA807089F16A02FB0011B5E000BF25
:102B50000F290DD194F82F104906BCD4410600F17D
:102B6000AF805FFA8BF18842B3D10299AFE000BF2A
:102B70005FEA0B604CD199F8000099F80110C70189
:102B800047EA5000084499F80220C1B2C00140EA67
:102B90005100104499F80330C1B2C00140EA51001D
:102BA0001844C1B2C00199F8042040EA5100104411
:102BB000C1B2C00199F8052040EA51001044C1B2E9
:102BC000C00199F8062040EA51001044C1B2C0018A
:102BD00099F8072040EA51001044C1B2C00199F8A9
:102BE000082040EA51001044C1B2C00199F8092000
:102BF00040EA51001044C1B2C00199F80A2040EAED
:102C0000510002991044C0B2C9B2814200F00E8254
:102C100094F82F00C0077FF45AAF99F8000094F899
:102C2000241088427FF453AF99F8010094F82510DE
:102C300088427FF44CAF99F8020094F8261088423D
:102C40007FF445AF99F8030094F8271088427FF489
:102C50003EAF99F8040094F8281088427FF437AF0B
:102C600099F8050094F8291088427FF430AF99F85C
:102C7000060094F82A1088427FF429AF99F80700DB
:102C800094F82B1088427FF422AF99F8080094F84A
:102C90002C1088427FF41BAF99F8090094F82D108E
:102CA00088427FF414AF99F80A0094F82E108842F5
:102CB0007FF40DAFBAE100BF0021E161ECE600BF97
:102CC00099F80D20616900F0BF0B2163114699F856
:102CD0000D000A460291C9B281427FF4FAAEB9F8FA
:102CE0001A0000287FF4F5AE99F800000D2100F0DD
:102CF0003F004843A0F10D05FE2D3FF6EAAEB9F8BE
:102D000001600190DAF80C70304601F013FC37F8DE
:102D1000151000970746084601F00CFC87427FF427
:102D2000D8AEB9F80370002E00F020810198A0F110
:102D30000C05FE2D3FF6CDAE384601F0FBFB0099A9
:102D4000064631F81510084601F0F4FB86427FF480
:102D5000C0AEB9F80560002F00F00F810198A0F116
:102D60000B05FE2D3FF6B5AE304601F0E3FB0099B2
:102D7000074631F81510084601F0DCFB87427FF466
:102D8000A8AEB9F80770002E00F0FE800198A0F1FF
:102D90000A05FE2D3FF69DAE384601F0CBFB0099AB
:102DA000064631F81510084601F0C4FB86427FF450
:102DB00090AEB9F80960002F00F0ED800198A0F105
:102DC0000905FE2D3FF685AE304601F0B3FB0099B4
:102DD000074631F81510084601F0ACFB87427FF436
:102DE00078AEB9F80E70002E00F0DC800198A0F1EA
:102DF0000805FE2D3FF66DAE384601F09BFB0099AD
:102E0000064631F81510084601F094FB86427FF41F
:102E100060AEB9F81060002F00F0CB800198C51F9C
:102E2000FE2D3FF656AE304601F084FB0099074672
:102E300031F81510084601F07DFB87427FF449AE5A
:102E4000B9F81270002E00F0BB800198851FFE2D8E
:102E50003FF63FAE384601F06DFB0099064631F86B
:102E60001510084601F066FB86427FF432AEB9F8D1
:102E70001460002F00F0AB800198451FFE2D3FF637
:102E800028AE304601F056FB0099074631F8151080
:102E9000084601F04FFB87427FF41BAEB9F816706D
:102EA000002E00F09B800198051FFE2D3FF611AE0D
:102EB000384601F03FFB0099064631F815100846E8
:102EC00001F038FB86427FF404AEB9F81860002F99
:102ED00000F08B800198C51EFE2D3FF6FAAD3046FE
:102EE00001F028FB0099074631F81510084601F05B
:102EF00021FB87427FF4EDADB9F81C70002E7BD02A
:102F00000198851EFE2D3FF6E4AD384601F012FB18
:102F10000099064631F81510084601F00BFB864271
:102F20007FF4D7ADB9F81E60002F6CD00198451E14
:102F3000FE2D3FF6CEAD304601F0FCFA0099074673
:102F400031F81510084601F0F5FA87427FF4C1AD5B
:102F500099F8000040065BD5002E59D0DDE900103D
:102F600031F8100000287FF4B4AD51E04FF6FF7047
:102F700087427FF4AEADB9F805604FF6FF70864228
:102F80007FF4A7ADB9F807704FF6FF7087427FF462
:102F9000A0ADB9F809604FF6FF7086427FF499AD95
:102FA000B9F80E704FF6FF7087427FF492ADB9F812
:102FB00010604FF6FF7086427FF48BADB9F8127047
:102FC0004FF6FF7087427FF484ADB9F814604FF676
:102FD000FF7086427FF47DADB9F816704FF6FF7032
:102FE00087427FF476ADB9F818604FF6FF708642DD
:102FF0007FF46FADB9F81C704FF6FF7087427FF415
:1030000068ADB9F81E604FF6FF7086427FF461AD7F
:10301000ABF1010B5FE500BF012003B0BDE8F08F0D
:103020000020E061042003B0BDE8F08F002003B071
:10303000BDE8F08F2DE9F04F81B00446C06904254A
:10304000B8B10F4661694FF6FF72C0F21F0201F17D
:10305000200696420DD8B246D4F800906FF35F2A4E
:10306000BAF1000F0AD009EB0A0034306661206221
:103070000025E8B201B0BDE8F08F00BFA1690130C2
:10308000E06189B1B9F80A00104400F5C00010EA07
:10309000562FE8D1484602F009F9022810D202253D
:1030A000E8B201B0BDE8F08FB9F80800B0EB561FE8
:1030B000D9D80020E0610425E8B201B0BDE8F08F66
:1030C0008046013030D0D9F8180080450ED2A8F1E2
:1030D000020B02388345C4F8188062D2B9F80A009E
:1030E000D9F82C100BFB00105CE000BF002FE0D0E3
:1030F000A1692046FFF7C8FB8046013003280FD2A4
:103100004FF6F871C0F2FF0101EAC00040F2017110
:10311000C0F2020121FA00F5E8B201B0BDE8F08F7B
:10312000484602F097FB28B10125E8B201B0BDE89E
:10313000F08F00BF09F134004FF40071FDF778F80B
:10314000D9F81800A8F1020B811EB9F80A208B45A6
:1031500004D2D9F82C100BFB021100E000214FF033
:103160000007C9F83010A2B10125484689F803507C
:1031700002F070FB00287FF47CAFD9F83000B9F87A
:103180000A200137411C9742C9F83010EDD3D9F815
:103190001800C91BC9F8301002388345C4F81880DC
:1031A0009CD30020E0615EE72DE9F04F8FB090F8EE
:1031B0002F6016F0A00F03D006200FB0BDE8F08FEF
:1031C000D0F800B0824600F12407DBF80C004FF085
:1031D00000090621421832F8062CBAB100EB490268
:1031E00053888BB19288002A42D0425A09F10409CF
:1031F000002A01F10801EDD1A9F10109F0073246D9
:103200005E4607D03AE000BF09F10109F0073246F7
:103210005E4633D14EF64F4109F10C00C4F6C4614D
:10322000A0FB0101012000EB9108900758BF4FF06F
:103230000108DAF8081000200029CAF8140000F08C
:10324000D9817089002800F00D82B06900278A1E9C
:103250000238824280F01C827089F36A02FB0030DF
:103260000028CAF81810CAF81C0040F0D881B3E34F
:1032700009F10209F00732465E46CBD09AF82400E5
:10328000CDF830B00B909AF8250041F2210B0A904E
:103290009AF82600C0F2010B09909AF8270001263F
:1032A00008909AF828000DF1340807909AF8290040
:1032B000009206909AF82A0005909AF82B00049044
:1032C0009AF82C0003909AF82D0002909AF82E009C
:1032D000019040208AF82F000C98062EC1680B98A8
:1032E00032468AF824000A988AF8250009988AF854
:1032F000260008988AF8270007988AF82800069878
:103300008AF8290005988AF82A0004988AF82B0080
:1033100003988AF82C0002988AF82D0001988AF800
:103320002E00C0F08C8008883246002800F087808C
:103330000239324600F0010343EA4203120448BF57
:1033400083EA0B03C0F3400242EA43021B0448BF76
:1033500082EA0B02C0F3800343EA4203120448BF2F
:1033600083EA0B03C0F3C00242EA43021B0448BFD6
:1033700082EA0B02C0F3001343EA4203120448BF7F
:1033800083EA0B03C0F3401242EA43021B0448BF26
:1033900082EA0B02C0F3801343EA4203120448BFDF
:1033A00083EA0B03C0F3C01242EA43021B0448BF86
:1033B00082EA0B02C0F3002343EA4203120448BF2F
:1033C00083EA0B03C0F3402242EA43021B0448BFD6
:1033D00082EA0B02C0F3802343EA4203120448BF8F
:1033E00083EA0B03C0F3C02242EA43021B0448BF36
:1033F00082EA0B02C0F3003343EA4203120448BFDF
:1034000083EA0B03C0F3403242EA43021B0448BF85
:1034100082EA0B02C0F3803343EA4203120448BF3E
:1034200083EA0B035A0042EAD0321804888848BF66
:1034300082EA0B02002801F102017FF47BAF072131
:10344000042000BF02F00F0303F13005392D88BFBF
:1034500003F1370508EB0003102ADD702CD3C2F30B
:10346000031505F13004392C88BF05F13704150A1E
:103470009C7039D005F00F0505F13004392C88BF58
:1034800005F13704150B5C7038D005F00F0303F11C
:103490003005392D88BF03F13705043908F800508D
:1034A000120CA0F10400CDD1011D03304FF07E02BB
:1034B00008F8002030B91FE002304FF07E0208F813
:1034C0000020C8B18A1E002103E000BF0131814203
:1034D0001ED27B5C202B1BD00133DBB2822BF5D3B9
:1034E000914213D00131F1E70139013000284FF04A
:1034F0007E0208F80020E5D1002109E00239002809
:103500004FF07E0208F80020DCD1F5E7114600BF3D
:10351000072801F101029ABF18F80030013020237A
:10352000072A7B544ED8072801F102039ABF18F8E6
:10353000005001302025072BBD5443D8072801F146
:1035400003029ABF18F8005001302025072AFD54C5
:1035500038D8072801F104039ABF18F80050013049
:103560002025072BBD542DD8072801F105029ABF4D
:1035700018F8005001302025072AFD5422D80728CA
:1035800001F106039ABF18F8005001302025072BDF
:10359000BD5417D8072801F107029ABF18F8005048
:1035A00001302025072AFD540CD8072894BF18F8AD
:1035B0000000202011F1080FB85422BF01F10800CB
:1035C000202139545046FFF7F5F928B90136642E09
:1035D0007FF482AEC4E000BF642E00F0C1800428F6
:1035E00040F00081DAF80060009ADDF830B08AF827
:1035F0002F200FE63078032803D3B16A00297FF427
:1036000020AE3089002800F0E781B06A0027002151
:103610000028CAF81810CAF81C0000F0DD8100EB81
:1036200057206FF35F27F11934310027CAE90701EA
:1036300008E000BF0137474537D050460121FFF76A
:10364000F9FC68BBDAF81C10304602F03BF838BBD6
:10365000DAF820000078E528ECD00028EAD000272E
:10366000EBE700BF45020027DAF8000001F01EFE7C
:103670000146013000F0B4810229C0F0AD81B0698B
:10368000814280F0A9817F1BAF42EDD2DFE500BF10
:103690000020CAE9061002200FB0BDE8F08F00BF7D
:1036A00004285DD0002840F09D80B8F101055BD072
:1036B000DAF81400D846A0EB4511504600F09CF90A
:1036C000002840F08F809AF824009AF82520C10144
:1036D00041EA50001044C1B2C0019AF8262040EAE5
:1036E00051001044C1B2C0019AF8272040EA5100AD
:1036F0001044C1B2C0019AF8282040EA5100104499
:10370000C1B2C0019AF8292040EA51001044C1B268
:10371000C0019AF82A2040EA51001044C1B2C00109
:103720009AF82B2040EA51001044C1B2C0019AF827
:103730002C2040EA51001044C1B2C0019AF82D205B
:1037400040EA51001044C1B2C0019AF82E2040EA6C
:103750005100DAF81C1087184FF6FF79C34653E082
:1037600007200FB0BDE8F08FDAF81C1058465C4611
:1037700001F0A8FFB0BBDAF820100020C861886112
:1037800048610861C860886048600860DAF8201005
:103790009AF824200A709AF825204A709AF8262070
:1037A0008A709AF82720CA709AF828200A719AF825
:1037B00029204A719AF82A208A719AF82B20CA7116
:1037C0009AF82C200A729AF82D204A729AF82E2024
:1037D0008A729AF82F10DAF8202001F0180111737C
:1037E0000121E1700FB0BDE8F08F00BF3089B0EB70
:1037F0005B1F40F2F9803019CAF814B03430013D33
:10380000C346CAF82000B1D0584601F05BFF00283B
:10381000E8D1DAF820000F22DBF80C10A0F80B201A
:1038200000224283EAB20D235A43477301EB42035D
:1038300033F81A6C741CA4B2012CA0F8016003D8F0
:10384000A0F8039008E000BF33F8186C741CA4B211
:10385000012CA0F803605BD8A0F80590A0F80790B1
:10386000A0F80990A0F80E90A0F81090A0F812907F
:10387000A0F81490A0F81690A0F81890A0F81C904A
:10388000A0F81E9045F040010170DAF81C100120EC
:103890008BF8030000294FF00400A3D0DAF81420BD
:1038A00002F1200B4FF6FF72C0F21F02934599D828
:1038B0005C46DAF800606FF35F24002C9BD1DAF8E5
:1038C00018200131002ACAF81C108FD070894FF6D9
:1038D000FF73C0F21F03184400F5C00010EA5B2F0D
:1038E0007FF489AF3046114601F0E0FC022873D323
:1038F000411C75D0B169884276D2821E02398A4253
:10390000CAF8180064D27089F16A02FB001160E005
:1039100033F8166C741CA4B2012CA0F805609DD974
:1039200033F8146C741CA4B2012CA0F8076097D96A
:1039300033F8126C741CA4B2012CA0F8096091D960
:1039400033F8106C741CA4B2012CC6817FF68CAFC6
:1039500033F80E6C741CA4B2012C06827FF686AF7D
:1039600033F80C6C741CA4B2012C46827FF680AF35
:1039700033F80A6C741CA4B2012C86827FF67AAFED
:1039800033F8086C741CA4B2012CC6827FF674AFA5
:1039900033F8066C741CA4B2012C06837FF66EAF5C
:1039A00033F8046C741CA4B2012C86837FF668AFD4
:1039B00033F8023C5E1CB6B2022EC383FFF462AF42
:1039C00031F812100029294608BF45F040015BE795
:1039D0000021CAF81C100EE702200FB0BDE8F08FDE
:1039E00001200FB0BDE8F08F0020CAF81C000420B1
:1039F0000FB0BDE8F08F0000F0B581B00C461F217C
:103A0000CFF6E0710C4203D0022001B0F0BD00BF40
:103A1000816806680546446171B17089B4EB402F36
:103A200018D2B0698A1E0238824225D27089F36AA0
:103A300002FB003021E000BF3078032802D3B16AD6
:103A40000029EAD13089B0EB541FDDD9B06A0021DA
:103A500013E000BF470200BF286801F027FC0146C1
:103A6000013019D00229CFD3B0698142CCD2E41BF6
:103A7000BC42F1D2D6E700BF00200028A961E8616E
:103A8000C2D000EB54206FF35F2431193431C5E903
:103A90000701002001B0F0BD012001B0F0BD000021
:103AA00040F2F041C2F200010A5C002A1CBF002073
:103AB000704701230A180B5401EB80004168107A0B
:103AC0000968084780B540F2F04CC2F2000C0CEBDC
:103AD000800EDEF804E06044007ADEF808C0BDE83D
:103AE0008040604740F2F041C2F2000101EB8002E9
:103AF00052680844007A51680847000080B540F2D7
:103B0000F04CC2F2000C0CEB800EDEF804E06044D6
:103B1000007ADEF80CC0BDE88040604710B582B086
:103B2000009129B34FF0FF3E01EB0E0C9CF80130E1
:103B3000202B21D33A2B1FD09CF80230202B27D3E7
:103B40003A2B25D09CF80330202B39D33A2B37D091
:103B50009CF804400EF1040EA4F13A03B3FA83F387
:103B60004FEA531C202C1AD33A2CDDD117E000BFAA
:103B70000B21084602B010BD3A3BB3FA83F34FEA7B
:103B8000531C0EF1010EBCF1000F0BD122E000BF5F
:103B90003A3BB3FA83F34FEA531C0EF1020EBCF129
:103BA000000F17D00978A1F13003092B34D8BEF1EA
:103BB000010F4FF00B0108BF002BDAD10AE000BF64
:103BC0003A3BB3FA83F34FEA531C0EF1030EBCF1F8
:103BD000000FE7D140F26403C2F20003596859B103
:103BE0009C688C4204BF00249C609C698C4204BF8A
:103BF00000249C6100240C70002188B1012A01700E
:103C00005860B6D1684601A9002200F0FBFC0146CD
:103C1000084602B010BD00BF0B21084602B010BD1F
:103C20005960084602B010BD2DE9F04F91B01091D7
:103C300090B302F03F0A1646804610A802A95246E9
:103C400000F0E0FC0546002840F04F81DDF80890C8
:103C50004FF40070CDF80C9000F068FC10B3109990
:103C60000446C9F80C0003A800F05AFF0746F8B153
:103C70001AF01C0F5CD0002F61D0042F40F07A8026
:103C800040F26400C2F20000816800296ED08069B1
:103C900000286BD012276DE00925284611B0BDE839
:103CA000F08F00BF1125284611B0BDE8F08F00BF8E
:103CB0009DF93B0000282FD440F26400C2F20000BE
:103CC0008168039A61B191420AD1C368059DAB42F4
:103CD00006D10369089DAB4202D100210DE000BF6F
:103CE00083694BB393421DD1C269059B9A4219D196
:103CF000026A089B9A4215D1012116F03E0205D1B5
:103D000000EB0110808AB0F5807FB1D11AF01C0F52
:103D10004FF010072ED10BE01AF01C0F4FF00607E2
:103D200028D105E041B11AF01C0F4FF0120721D144
:103D3000002F40F0D6800BE01AF01C0F08D09DF841
:103D4000120010F0110F0DD1082000EA460713E011
:103D50009DF81200C10607D45FEA8A7175D510F08C
:103D6000010072D00727BCE00427BAE003A8FFF7E0
:103D70001BFA07464AF0080A002F64D11AF008001F
:103D800061D001F0FBFA0B99C1F80E000B99C1F854
:103D900016000B982021C1720B9899F80010B0F80A
:103DA0001AB0032905D1017D427D090441EA02616F
:103DB0008B440021418399F80020032A08BF8182A7
:103DC0000B98BBF1000FC1614FF0010089F80300AF
:103DD0003BD0BBF1010F00F08380039DA8695845DB
:103DE00040F27E80D9F830005F46019003E000BFCA
:103DF000864237461ED20398394601F057FA0646E6
:103E0000013000F01581AEB1012E69D02846394647
:103E1000002201F097FC002840F00C81D5E9051044
:103E2000821E9142E4D22A790131696142F0010196
:103E30002971DDE70199484601F044FC0746ABF1E2
:103E40000100C9F81000002F4BD140F26401D9F8ED
:103E50003000C2F20001039A8B68C8F824000B9866
:103E60009342C8F8280009D1CF68059EB74205D112
:103E70000F69089EB74201D1002321E08E69964266
:103E80000AD1CF69059DAF4206D10F6A089DAF42A6
:103E900002D1012314E000BF4FF0000C23B1E6B9BA
:103EA0002746012302E000BF27460023089C01EBC0
:103EB0000316059D34613C46C6E90225A6F814C0E8
:103EC0000AF0080201EB03114AEAC20231F8147F3A
:103ED000022A01D2013711E077B10020C8F81000A2
:103EE0000227204600F024FB3D460020C8F80000D1
:103EF000284611B0BDE8F08F4FF480770F80591C31
:103F0000C8F8101099F80010468B032905D1017DDF
:103F1000437D090441EA03610E44C8F80860D0F803
:103F20001CB00020C8F80CB0C8F82C00C8F80090ED
:103F3000B9F8061008F13007A8F8041088F8150041
:103F4000C8F82000C8F8180038464FF4007188F807
:103F50001420FCF76DF95FEA8A602FD5BBF1000FE2
:103F60002CD0C8F818B0B9F80A000025BBEB402FD8
:103F70002CD9CDE900744402A5EB402A5F46D8F85D
:103F80000000314601F092F9064602284FF0000089
:103F900038BF01204500701C08BF0125A7EB040BAA
:103FA00025B90AEB0700A0425F46E8D82846002D55
:103FB00018BF0120DDE9007409E000BF204600F0D1
:103FC000B7FA0025284611B0BDE8F08F0020C8F8E8
:103FD0001C6008BB58466FF35F20E8B1D9F8181091
:103FE000B01E02398842BFF47BAFB9F80A10D9F885
:103FF0002C2000FB012000283FF472AF00EB5B2275
:10400000C8F8202099F80100394601230127FFF75D
:1040100059FD00287FF465AF204600F089FA002D95
:104020007FF463AF0025284611B0BDE8F08F00BFD4
:10403000012756E7074654E72DE9F04F81B00446C3
:104040000020186004B32068C0B189460178A9B186
:104050001646A188C288914210D140781D46FFF7CC
:1040600041FDC0070AD1677D7FB9207DC00711D10E
:104070000727384601B0BDE8F08F00BF0927384652
:1040800001B0BDE8F08F00BF0927384601B0BDE898
:10409000F08F00BFE068A169401AB04238BF064601
:1040A000002E00F03381D4F800E004F1300BCDF89D
:1040B00000E00EE0DDF800E04FEA4820A1692A6840
:1040C000814401440244361A4FF00007A1612A607E
:1040D000DBD00A466FF35F22A2B1C2F50070B04296
:1040E00028BF30460BEB020110F00302A0F1010CD7
:1040F00014D011F8013B4F46012A07F8013B11D1BA
:10410000624650E0BEF80A005F46013800EA512BD3
:10411000BBF1000F10D0E06974E000BF02464F46CB
:1041200041E000BF11F8013B022A89F8013033D188
:1041300009F10207821E36E0002949D0E36A002B0C
:1041400048D05A68002A00F0E7802068490A408970
:10415000B1FBF0F003F12401904243D351F8183C35
:10416000002B00F0D980801A98423DD351F8102CD2
:10417000002A00F0D180C01A904237D351F8083C91
:10418000002B00F0C980801A984231D351F8202BBF
:10419000C01A002AE0D1BFE011F8012B09F1030792
:1041A00089F80220C21EBCF1030FFFF487AF3B1F4A
:1041B000043900BF11F8047F043A03F8047F4F78F4
:1041C0005F708F789F70CF78DF70F3D176E700BF94
:1041D000A06810E02068E16901F068F8DDF800E00F
:1041E00009E000BF1C3904E0143902E00C3900E09A
:1041F0000439096808440228C0F08E80411C00F090
:104200009180E061DEF8181002380239884280F0AF
:104210008380BEF80A10DEF82C2000FB0120002865
:104220007AD05FEA562800EB0B0A47D00BEB080068
:1042300088429EF8010088BFA1EB0B084946524610
:104240004346FFF73FFC00286CD194F91400BB46AD
:10425000B0F1FF3F3FF72EAF206AA0EB0A004045C8
:10426000BFF428AF09EB402000211BF801200BEB25
:10427000010342545F78421857709F78103197704D
:10428000DF78B1F5007FD7701F7917715F795771AB
:104290009F799771DF79D7711F7A17725F7A57729A
:1042A0009F7A9772DF7AD7721F7B17735F7B577382
:1042B0009F7B9773DB7BD373D7D1FBE6226ABB4628
:1042C00052451DD094F91400B0F1FF3F0DDC9EF86B
:1042D0000100594601230127FFF710FCE8B9207DB2
:1042E000DDF800E000F07F0020759EF801005946DF
:1042F000524601230127FFF7E5FBDDF800E060B936
:10430000A269C4F820A06FF35F22E6E600273846D2
:1043100001B0BDE8F08F00BF02276775384601B0D5
:10432000BDE8F08F01276775384601B0BDE8F08F12
:1043300010B5802838BF10BD4BF2125345F64052DD
:10434000C0F60103C0F60002002908BF1A464CF26D
:10435000CE13CFF6FF7308BF47F2C3534CF2CE140F
:10436000002908BF47F2C354844203D142F6902388
:10437000D5E000BF99B24FF0000E41F248538142A0
:1043800038BF42F6902E43EA0E0332F823408442AF
:1043900000F0C58042F6902C814238BF45F2205C87
:1043A000844234BF9E469C46ACEB0E018BB201EBBF
:1043B000D33109B20EEB610332F82310814200F0D1
:1043C000AE8034BF9E469C46ACEB0E018BB201EB37
:1043D000D33109B20EEB610332F82310814200F0B1
:1043E0009E8034BF9E469C46ACEB0E0101EBD17122
:1043F0000EEB610332F82310814200F0908034BF4D
:104400009E469C46ACEB0E0101EBD1710EEB6103B5
:1044100032F82310814200F0828034BF9E469C46D1
:10442000ACEB0E0101EBD1710EEB610332F82310FE
:10443000814274D034BF9E469C46ACEB0E0101EB2A
:10444000D1710EEB610332F82310814267D034BF83
:104450009E469C46ACEB0E0101EBD1710EEB610365
:1044600032F8231081425AD034BF9E469C46ACEBB2
:104470000E0101EBD1710EEB610332F82310814282
:104480004DD034BF9E469C46ACEB0E0101EBD17182
:104490000EEB610332F82310814240D034BF9E46B8
:1044A0009C46ACEB0E0101EBD1710EEB610332F8CF
:1044B0002310814233D034BF9E469C46ACEB0E01A4
:1044C00001EBD1710EEB610332F82310814226D04B
:1044D00034BF9E469C46ACEB0E0101EBD1710EEB56
:1044E000610332F82310814219D034BF9E469C46A6
:1044F000ACEB0E0101EBD1710EEB610332F823102E
:1045000081420CD034BF9E469C46ACEB0E0101EBC1
:10451000D1710EEB610332F82310814204D102EB1A
:104520008300408810BD00BF002010BD01F0AABB71
:1045300001F080BB10B54BF26423C0F601034BF2CF
:10454000203C1A46C0F6010CB0F5805F38BF6246C9
:10455000B2F800E0BEF1000F1DD00233B0F5805F6D
:1045600038BF0CF1020300BF1FFA8EFC844512D83D
:1045700019880432CBB213FA8EF484420ED8B1F506
:10458000807F28BF002302EB4302134633F802EB7F
:10459000BEF1000FE8D180B210BD00BF090A0829A2
:1045A000F9D8DFE801F0050B13171B1F23272B0099
:1045B000A0EB0C0032F8100080B210BDA0EB0E0191
:1045C00001F00101401A80B210BD00BF103880B266
:1045D00010BD00BF203880B210BD00BF303880B29F
:1045E00010BD00BF1A3880B210BD00BF083080B2C5
:1045F00010BD00BF503880B210BD00BFA0F5E35021
:1046000080B210BD2DE9F04700230B600368002B3A
:1046100044D04FF0FF3700BFDE197578202D19D335
:104620003A2D17D0B578202D1CD33A2D1AD0F57815
:10463000202D1FD33A2D1DD035790437A5F13A0628
:10464000B6FA86F67609202D01D33A2DE4D166B369
:1046500017E000BFA5F13A06B6FA86F676090137EB
:104660007EB922E0A5F13A06B6FA86F67609023757
:10467000DEB106E0A5F13A06B6FA86F6760903370A
:104680009EB11E78303E092E08D8012F4FF00B0541
:1046900008BF002E06D02846BDE8F0870B20BDE8F5
:1046A000F08700BF3B440133036040F26406C2F26E
:1046B00000067468002C00F00381207802F0FE05EB
:1046C0000C6068B16078FFF70DFAC10708D14007A8
:1046D0000A21002D18BF01EAE0752846BDE8F087E1
:1046E000002020800020FFF7DBF9C1071CBF03205A
:1046F000BDE8F087002D1EBF10F004000A20BDE8C1
:10470000F0870020E0704FF0FF302063204600214A
:1047100000F0D8FF00281CBF0120BDE8F087B4F8E6
:1047200032024AF6552A504540F0F68194F834009A
:10473000E92807D0EB2840F0C78094F8360090288D
:1047400040F0C28094F86B2094F86C3094F86A10B2
:10475000120244F2461042EA0342C0F254001144ED
:10476000814206D0D4F8861000F14C50814240F0CE
:10477000AB800027B4F83F00B0F5007F1CBF0D20D0
:10478000BDE8F087B4F84A00002808BFA06D94F88F
:104790004430E061591E0129A37000F2BD8194F8F4
:1047A0004120511E1140B2FA82F518BF01216D0956
:1047B0002943628140F0B08194F8455094F8461046
:1047C00045EA01212D07218140F0A681B4F8475028
:1047D000002D08BF656DB4F84290B9F1000F00F0EC
:1047E0009B8100FB03FE0EEB11134B449D42C0F076
:1047F0009381ED1A9542C0F08F81B5FBF2F24FF62E
:10480000F6754FF00308AA4240F6F57538BF4FF031
:104810000208AA4298BF4FF0010802F1020C07EB10
:1048200009053B44B8F1030FC4F818C0C4E9087582
:10483000E36240F03F81B4F85E2011431CBF0D20BD
:10484000BDE8F08740F2FF12216E02EB8C02B0EB64
:10485000522FA1623CBF0D20BDE8F0874FF0FF3022
:10486000C4E90400B4F8640080210128217140F0FB
:104870004081791C204600F025FF002840F0398156
:10488000B4F8320200215045217140F03281606B52
:1048900045F25221C4F26111884240F02A81D4F8D5
:1048A000180247F27221C6F24111884240F021817C
:1048B000D4F82002D4F81C12C4E9040119E100BFA5
:1048C0000C20BDE8F08700BF94F8F601002814BF63
:1048D000D4F8FA71002794F80602002814BFD4F81F
:1048E0000A52002594F81602002814BFD4F81A9230
:1048F0004FF0000994F82602002814BFD4F82A8249
:104900004FF000087FB30020E0704FF0FF302063CD
:104910002046394600F0D6FE28BBB4F83202504596
:1049200021D194F83400E92805D0EB281BD194F864
:104930003600902817D194F86B2094F86C3094F8D6
:104940006A10120244F2461042EA0342C0F25400D6
:10495000114481423FF40EAFD4F8861000F14C5060
:1049600081423FF407AF8DB30020E0704FF0FF307D
:1049700020632046294600F0A5FE38BBB4F8320279
:10498000504523D194F83400E92805D0EB281DD1F7
:1049900094F83600902819D194F86B2094F86C3074
:1049A00094F86A10120244F2461042EA0342C0F23E
:1049B00054001144814201D12F46DBE6D4F8861021
:1049C00000F14C5081422F463FF4D4AEB9F1000FB4
:1049D00032D00020E0704FF0FF302063204649467F
:1049E00000F070FE40BBB4F83202504524D194F878
:1049F0003400E92805D0EB281ED194F83600902821
:104A00001AD194F86B2094F86C3094F86A10120262
:104A100044F2461042EA0342C0F25400114481427B
:104A200002D14F46A6E600BFD4F8861000F14C50E4
:104A300081424F463FF49EAEB8F1000F6CD000208B
:104A4000E0704FF0FF3020632046414600F03AFE10
:104A500000281CBF0120BDE8F087B4F832025045A1
:104A60005AD194F83400E92805D0EB2854D194F8B1
:104A70003600902850D194F86B2094F86C3094F85C
:104A80006A10120244F2461042EA0342C0F2540095
:104A90001144814202D147466CE600BFD4F886102B
:104AA00000F14C50814247461CBF0D20BDE8F08705
:104AB00060E600BF81B30CEB4C0302F0010707EB8B
:104AC0005303A2F6F672B2F5704F38BF4FEA4C03AB
:104AD00003F2FF1205EB0E01B0EB522FA1623CBFB7
:104AE0000D20BDE8F0874FF0FF30C4E904008020BE
:104AF00020713088B168013084F800803080A14294
:104B0000E08004BF0020B060B0690025A04208BF6B
:104B1000B5612846BDE8F0870D20BDE8F0870000AC
:104B20002DE9F04F87B0D0F8008004460D4600E034
:104B3000043528785C2801D02F2814D168785C28A7
:104B400001D02F280CD1A8785C2801D02F2809D1BA
:104B5000E8785C28ECD02F28EAD0033503E000BFCA
:104B6000013500E002350020A0602A78202A27D2F3
:104B7000802184F82F1098F8001060610329C0F09C
:104B80002D83D8F82810002900F02883B8F80A00EF
:104B9000002800F04383D8F8180000258A1E023848
:104BA000824280F05383B8F80A00D8F82C3002FB18
:104BB00000300028A161E06140F01A8342E300BFA9
:104BC000D8F80C9004F1240A08F13400069000276C
:104BD0000121002609E000BF29F81710AA5D07F19E
:104BE000010B711C202A5F4654D3D0B25C283AD006
:104BF0002F2838D0FF2F00F00C830132D2B2822A46
:104C000002D20E460FE000BF69560236CAB2B1F1B9
:104C1000FF3F42EA002006DB6FF03F0252FA81F1CB
:104C20003E2900F2F6820121FFF782FB002800F006
:104C3000F08201467F28CFD8A1F122021D2A4FF031
:104C4000060009D8012303FA02F240F20113C3F26D
:104C500000531A4240F0D6827C2900F0D3827F298B
:104C6000BAD1CFE20431685C5C2801D02F2818D17A
:104C7000681842785C2A01D02F2A0FD182785C2AEA
:104C800001D02F2A0CD1C0785C28EBD02F28E9D096
:104C9000033106E052464FF0040A09E0013100E01A
:104CA0000231002F00F0B28252464FF0000ABB469C
:104CB00009EB4B000D44043806E000BFBBF1040BC8
:104CC000A0F1080000F0A28241882E2901D02029FD
:104CD00026D1BBF1010F00F0998201882E2901D065
:104CE000202917D1BBF1020F00F0908230F8021C8E
:104CF0002E2901D0202911D1BBF1030F00F08682AB
:104D000030F8041C2E29D9D02029D7D0ABF1030BC1
:104D100006E000BFABF1010B02E000BFABF1020BFC
:104D200000274FF0203009F1040C29F81B70C2F85D
:104D30000700506010606046049201E004370830BC
:104D400030F8041C2E2901D0202914D130F8021C7F
:104D50002E2901D020290BD101882E2901D020290C
:104D600008D141882E29E9D02029E7D0033702E075
:104D7000013700E0023709EB4B000438002F18BF61
:104D80004AF0030ABBF1000F20D041882E291FD022
:104D9000BBF1010F1AD001882E2900F0B781BBF1B9
:104DA000020F13D030F8021C2E2900F0B381BBF1A2
:104DB000030F0BD030F8041CABF1040B2E29A0F12B
:104DC0000800DFD10BF1010B02E000BF4FF0000B38
:104DD000CBF10006ABF101004FF0000E0021059071
:104DE00003914AF003010CEB470202E0083204375A
:104DF0008A4639F81700202805D02E281ED105989C
:104E0000B84200F0C38009EB47004088F31920281E
:104E100004D02E2818D1981C00F0B28010882028C9
:104E200004D02E2816D1D81C00F0AA805088202843
:104E3000DCD02E2814D1181DD8D1A1E0002800F014
:104E4000A380013711E000BF002800F095800237F1
:104E50000AE000BF002800F08F80033704E000BFA5
:104E6000002800F0898004378A460399072900F258
:104E7000A781A7EB0B01B1FA81F1490940F0A081AC
:104E80008028CDF804A023D3B246CDF808E06646CA
:104E9000FFF750FB0021FFF74BFAB0F5807F0FD3EF
:104EA000039AB446072A5646C0F03C80DDF804A0B9
:104EB0000820DDF808E04AF0030A039091E700BFFC
:104EC0000199DDF808E041F00201B446564601912F
:104ED000A0F12B01322900F23780DDF804A0DFE8D1
:104EE00001F01B1B37373737373737373737373707
:104EF00037371B371B37373737373737373737377A
:104F00003737373737373737373737373737373731
:104F100037371B371B0000BF039B4AF0030A5F2093
:104F20000CE000BFDDF804A0010A13462244DDF8BE
:104F300008E04AF0020A013382F82410E218591CF2
:104F400082F824004CE700BFDDF804A00028E3D07D
:104F5000A0F1410189B21A2904D2039B4EF0020E3E
:104F6000ECE700BFA0F16101039B89B219299CBF46
:104F70004EF0010E2038E1E701208A46D4E000BF60
:104F80005F468A465F4506D90120CDE051465F461F
:104F90008A465F45F8D84FEA8E0E08215F46039196
:104FA0004AF003010CEB470203E000BF083204376C
:104FB0008A4639F81700202805D02E281ED10598DA
:104FC000B84200F0AE8009EB47004088F319202872
:104FD00004D02E2818D1981C00F0A2801088202818
:104FE00004D02E2816D1D81C00F09A805088202892
:104FF000DCD02E2814D1181DD8D191E0002800F063
:105000009280013711E000BF002800F0878002374E
:105010000AE000BF002800F08180033704E000BFF1
:10502000002800F07B8004378A4603990A2900F2A1
:1050300078805F4500F07580802817D3CDE901CED8
:10504000FFF778FA0021FFF773F9FF280AD9039ACE
:10505000DDE901CE0A2AC0F02F800B204AF0030AB6
:1050600003909DE7DDE901CE4AF0020AA0F12B0191
:1050700032292BD8DFE801F01A1A2C2C2C2C2C2CDE
:105080002C2C2C2C2C2C2C2C1A2C1A2C2C2C2C2C84
:105090002C2C2C2C2C2C2C2C2C2C2C2C2C2C2C2C50
:1050A0002C2C2C2C2C2C2C2C1A2C1A00039B4AF068
:1050B000030A5F2025E000BF13464AF0020A010AF6
:1050C0002244013382F824101BE000BF0028EDD0F9
:1050D000A0F1410189B2324676461A2904D2B64679
:1050E00046F0020E0BE000BFA0F1610189B2192960
:1050F00004D8B64646F0010E203800E0B646039BC1
:105100001646E218591C82F8240048E7ABF1010B5F
:105110005EE600BFABF1020B5AE600BF00202CE7B1
:105120008A464AF0030A002004990978E52902D149
:10513000049905220A70002818BF4FEA8E0E0EF05F
:1051400003010EF00C0003294AF0020208BF924648
:105150000C2808BF92465FEA8A7207D4012908BF6B
:105160004AF0100A042808BF4AF0080A204684F8CA
:105170002FA0FDF71FFC94F82F10002872D14807CC
:105180007AD4A079C0067BD5606906996FF35F2059
:10519000014498F80020488B032A05D10A7D497DF7
:1051A000120442EA01610844A06020682A78D0F81D
:1051B0000C90DDF810A0202ABFF409AD26E000BF56
:1051C0005F4505D151468A465F453FF6DDAEE2E6D2
:1051D0004AF0030A5F453FF6D7AEDCE6B8F80800B0
:1051E00080B3D8F8280000250021A161E06148B310
:1051F00000EB55206FF35F2508EB05013431C4E95E
:105200000701002007B0BDE8F08F00BF0020A9F81B
:105210000000062007B0BDE8F08F00BF4602002561
:10522000206800F043F80146013017D0022909D365
:10523000D8F81800814205D2AD1BB542F0D2FFF775
:10524000ADBC00BF022007B0BDE8F08F0020C4E96C
:105250000610022007B0BDE8F08F00BF012007B0A4
:10526000BDE8F08F0428CDD148074FF0040058BFA7
:10527000052007B0BDE8F08F002007B0BDE8F08F33
:10528000052007B0BDE8F08F10B540F22001C2F252
:1052900000010446087040F28050C2F20000012272
:1052A0004FF47A73FCF776FC204610BDF0B581B060
:1052B000022931D3054680690C4688422CD92878CA
:1052C00003282DD0022847D0012825D1686A04EB95
:1052D000540700EB5721284600F0F4F9002842D18A
:1052E0007E1C6FF35F27696AE81990F8347001EB50
:1052F0005621284600F0E6F9A8BB6FF35F26A819EF
:1053000090F83400E20747EA002108466FF31F30A7
:1053100018BF080901B0F0BD012001B0F0BD00BF09
:10532000686A00EBD411284600F0CCF9D8B904F033
:105330007F0005EB800191F8363091F8340091F848
:10534000352091F837101B0243EA0141114461F303
:105350001B2001B0F0BD00BF686A00EB1421284695
:1053600000F0B0F920B14FF0FF3001B0F0BD00BF48
:10537000E0B205EB4000808E01B0F0BD0020704728
:1053800086B040F60044C4F20204FBF74FF9FDF783
:105390009DF9002743F63000CDE903770597C4F265
:1053A000020001686D4641F004010160016801F0EE
:1053B0000401059105990597016841F0800101609C
:1053C000016801F08001059105990597016841F098
:1053D00001010160016801F001010591059905973E
:1053E000016841F008010160016801F008010591C0
:1053F00005990597016841F002010160006829469E
:1054000000F00200059005980820CDE9000720462D
:105410000297FBF717F84FF48060009002262046B1
:105420002946CDE90167FBF70DF84FF400608DE8E0
:10543000C10020462946FBF705F84FF480408DE86F
:10544000C100A4F5006630462946FAF7FBFF304656
:105450004FF480410022FBF7CFF840F2200AC2F25D
:10546000000AA4F5F231504640F81C1F7F21FF22AC
:10547000C0E90171C0E90327C0E90577FBF714FD16
:1054800020B1EFF3108072B6FEE700BF40F2FC419E
:10549000A4F56040C2F20001C1E9000740F280506B
:1054A000C1E90277C1E904778F61A4F57841C2F2BE
:1054B00000000C234FF4E13280E88600C0E9037756
:1054C000C0E90537C761FCF7FFFA28B1EFF3108098
:1054D00072B600BFFEE700BFFCF7A2FC20464FF407
:1054E00080610122FBF788F820464FF40061012219
:1054F000FBF782F840F6B830FAF790FF742003907B
:1055000042F66560C7F67400029046F23230C6F289
:105510007520019045F25340C3F24D30009040F2A7
:10552000C850C2F200004FF4A041FAF781FE4BA030
:1055300000F0DEFB40F28C0040F25D01C2F20000A0
:10554000C2F200010122FEF7E9FA40F2C020C2F2E5
:10555000000069460122FEF767FB40F25C0BC2F2D5
:10556000000B8BF8000028B1014649A000F0A0F91B
:1055700003E000BF4DA000F0BBFB0AF11C080AF1DC
:1055800008094046494600220025FBF755FC9AF8D9
:1055900008109AF809204FF461609AF80A304843DD
:1055A000C2EB021700EB87001844CAF804004BF264
:1055B0005620C0F6010000F07BF9DAF804104BF237
:1055C0000D20C0F601004FF4006200F071F940F2C6
:1055D000C02640F2C857C2F20006C2F2000705AC6E
:1055E000304639464FF4A0422346FEF725FD059587
:1055F00005F5A045B5F1207F8BF80000F0D14046BD
:1056000049460022FBF718FC9AF808009AF809208E
:105610004FF461614843C2EB021100EB81009AF83C
:105620000A10DAF8043042184BF2C410D11AC0F64E
:10563000010000F03DF99AF808109AF809209AF84C
:105640000A304BF25620C0F6010000F031F900BFDD
:105650004FF47A70FAF7E2FEFAE700BF2A2A2A2A04
:105660002A2A2A2A2A2053544D3332437562654D23
:1056700058204661744673204578616D706C6520D2
:105680002A2A2A2A2A2A2A2A2A0D0A0D000000007C
:10569000665F6F70656E2066696C65206572726FFB
:1056A00072203A2025640D0A00000000665F6F70CA
:1056B000656E2066696C652073756365737321215F
:1056C00021200D002DE9F041066B8E4204BF002021
:1056D000BDE8F0810446C0780D4610B3607804F14F
:1056E00034084146324601230127FEF707FA18B174
:1056F0003846BDE8F08100BF616AE269711A002096
:105700009142E0700DD2A778022F0AD3E169607848
:105710000E44414632460123FEF7F0F9013F012FC6
:10572000F4D8607804F134012A460123FEF7CAF95F
:10573000074600281CBF4FF0FF3501272563384678
:10574000BDE8F0812DE9F047022921D305468069A3
:105750000E4688421CD92878144603281CD00228FB
:105760003CD0012814D1686A06EB560700EB57219C
:105770002846FFF7A7FF00283FD105F1340807F1BD
:10578000010A16F001096FF35F2739D1E0B23DE05D
:105790000220BDE8F08700BF686A00EBD6112846FA
:1057A000FFF790FF002818BFBDE8F08706F07F00E4
:1057B00005EB800090F8371004F0706201F0F00102
:1057C00042EA0161220A80F83520220C090E80F895
:1057D000344080F8362080F837100AE0686A00EB21
:1057E00016212846FFF76EFF38B9F0B205EB4000EE
:1057F0008486EE1C012030700020BDE8F08700BFD9
:1058000018F8070000F00F0064F30B10696A08F83D
:10581000070001202E4606F8030F01EB5A21284607
:10582000FFF750FF0028E8D1B9F1000F6FF35F2AAE
:105830000AD118F80A00C4F3032100F0F00008446C
:1058400008F80A00D6E700BFC4F3071008F80A00FA
:10585000D0E70000F0B581B00446C078F8B1256B00
:10586000607804F1340631462A4601230127FEF709
:1058700045F9C8B9606AE169281A00278842E770CB
:1058800012D2A778022F0AD3E16960780D4431461D
:105890002A460123FEF732F9013F012FF4D80027F1
:1058A000384601B0F0BD00BF384601B0F0BD000081
:1058B0000FB4054B10B503A9044A029800F018F87C
:1058C00010BC5DF814FB00008952000800000020A5
:1058D00002E008C8121F08C1002AFAD170477047B9
:1058E000002001E001C1121F002AFBD17047000017
:1058F0002DE9FF4F8BB088460546002606E0252897
:105900000BD0DDE90D1290476D1C761C287800281D
:10591000F5D10FB03046BDE8F08F0024A146A24675
:105920000122AE4900E0044315F8013F203B02FA92
:1059300003F00842F7D128782A2810D06FF02F0200
:105940002878A0F13001092915D809EB890102EB6B
:10595000410144F0020400EB01096D1CF0E758F826
:10596000041B5FEA010903D544F40054C9F100099E
:1059700044F002046D1C28782E2817D115F8010F69
:1059800044F004042A280ED06FF02F022878A0F1EA
:10599000300109290AD80AEB8A0102EB410100EB28
:1059A000010A6D1CF2E758F804AB6D1C28786C28CE
:1059B0000FD006DC4C2817D068280DD06A2814D1E7
:1059C00004E0742810D07A280FD10DE044F40014BC
:1059D0000AE044F4801401E044F440146978814200
:1059E00002D104F580146D1C6D1C2878692865D0DF
:1059F00006DC00288DD0632827D0642806D15DE01E
:105A00006E2808D073282AD0752877D0DDE90D12CA
:105A10009047761CE0E0C4F30250022809D0032826
:105A20000DD0D8F8001004280DD00E6008F104083D
:105A3000D2E0D8F80010F217C1E90062F6E7D8F812
:105A400000100E80F2E70E70F0E718F8041B8DF8D6
:105A5000001000208DF80100EB46012003E058F80B
:105A600004BB4FF0FF3061074FF0000701D40AE09C
:105A70007F1C57450DDA8742FADB1BF80710002917
:105A8000F6D106E07F1C8742FCDB1BF807100029DB
:105A9000F8D1DDE90D23A9EB07008146214600F08E
:105AA000B1F83044C61904E0DDE90D121BF8010B12
:105AB00090477F1EF8D22146484688E058F8040BEC
:105AC000C4F302514FF00A0B032900D100B204299C
:105AD00000D140B2002802DA40422D2102E0210527
